:100000000C947C000C94A4000C94A4000C94A40008
:100010000C94A4000C94A4000C94A4000C94A400D0
:100020000C94A4000C94A4000C94A4000C94610300
:100030000C94A4000C94A4000C94A4000C94A400B0
:100040000C94BF020C94A4000C942F030C9409038D
:100050000C94A4000C94A4000C94A4000C94A40090
:100060000C94A4000C94A4004E414E494E4954599E
:10007000494E46CDCCCC3D0AD7233C17B7D1387773
:10008000CC2B329595E6241FB14F0A000020410089
:1000900000C84200401C4620BCBE4CCA1B0E5AAED3
:1000A000C59D7400000000240027002A0000000005
:1000B00000250028002B00040404040404040402A6
:1000C00002020202020303030303030102040810F5
:1000D00020408001020408102001020408102000C2
:1000E00000000800020100000304070000000000F7
:1000F000000000003104250411241FBECFEFD8E01A
:10010000DEBFCDBF11E0A0E0B1E0E8E5FCE102C058
:1001100005900D92A834B107D9F722E0A8E4B1E028
:1001200001C01D92A536B207E1F710E0CBE7D0E0A1
:1001300004C02197FE010E941E0CCA37D107C9F7DF
:100140000E94BD040C941F0E0C940000E0914A0222
:10015000EC3088F540914B0228E830E0241B31094F
:1001600047FD3395220F331F220F331F821793074A
:1001700084F040914C0228E532E0241B310947FD10
:100180003395220F331F220F331F821793070CF46E
:100190009C0122503109220F331F4FB7F8948E2F44
:1001A00090E0FC01EE0FFF1FE80FF91FEB5DFD4F24
:1001B000328321834FBF089590E0FC01E152FF4F4D
:1001C0002491FC01E553FF4F3491FC01E954FF4FAA
:1001D000E491EE23C9F0222339F0233001F1A8F491
:1001E000213019F1223029F1F0E0EE0FFF1FE35525
:1001F000FF4FA591B4918FB7F894EC91611126C08F
:1002000030953E233C938FBF08952730A9F02830C6
:10021000C9F0243049F7809180008F7D03C0809120
:1002200080008F7780938000DFCF84B58F7784BD87
:10023000DBCF84B58F7DFBCF8091B0008F7780932B
:10024000B000D2CF8091B0008F7DF9CF3E2BDACFB6
:10025000AF92BF92CF92DF92EF92FF920F931F93D4
:10026000CF93DF936C017B018B01040F151FEB0112
:100270005E01AE18BF08C017D10759F06991D601C9
:10028000ED91FC910190F081E02DC6010995892B3B
:1002900079F7C501DF91CF911F910F91FF90EF90FA
:1002A000DF90CF90BF90AF900895FC01538D448DA7
:1002B000252F30E0842F90E0821B930B541710F011
:1002C000CF96089501970895FC01918D828D98171E
:1002D00061F0A28DAE0FBF2FB11D5D968C91928DF6
:1002E0009F5F9F73928F90E008958FEF9FEF089527
:1002F000FC01918D828D981731F0828DE80FF11DF0
:10030000858D90E008958FEF9FEF0895FC01918D0A
:10031000228D892F90E0805C9F4F821B91098F7303
:100320009927089588E891E00E94860121E0892BB1
:1003300009F420E0822F089580E090E0892B29F0D5
:100340000E94920181110C9400000895FC01A48D7B
:10035000A80FB92FB11DA35ABF4F2C91848D90E0E7
:1003600001968F739927848FA689B7892C93A089CA
:10037000B1898C91837080648C93938D848D981354
:1003800006C00288F389E02D80818F7D80830895E7
:10039000EF92FF920F931F93CF93DF93EC0181E0D5
:1003A000888F9B8D8C8D98131AC0E889F98980817C
:1003B00085FF15C09FB7F894EE89FF896083E889AF
:1003C000F98980818370806480839FBF81E090E0A1
:1003D000DF91CF911F910F91FF90EF900895F62E2E
:1003E0000B8D10E00F5F1F4F0F731127E02E8C8DC8
:1003F0008E110CC00FB607FCFACFE889F98980810D
:1004000085FFF5CFCE010E94A601F1CFEB8DEC0F59
:10041000FD2FF11DE35AFF4FF0829FB7F8940B8F29
:10042000EA89FB8980818062CFCFCF93DF93EC0193
:10043000888D8823B9F0AA89BB89E889F9898C91CC
:1004400085FD03C0808186FD0DC00FB607FCF7CF88
:100450008C9185FFF2CF808185FFEDCFCE010E9488
:10046000A601E9CFDF91CF910895FC010190002012
:10047000E9F73197AF01481B590BBC0188E891E0BF
:100480000C9428018F929F92AF92BF920F931F936B
:10049000CF93DF93CDB7DEB7A1970FB6F894DEBF49
:1004A0000FBECDBF19A2423008F44AE08E010F5DA5
:1004B0001F4F842E912CB12CA12CA50194010E94D8
:1004C000C20AE62FB901CA01EA30F4F4E05DD801AE
:1004D000EE938D01232B242B252B79F790E080E0E0
:1004E000109719F0CD010E943502A1960FB6F8942D
:1004F000DEBF0FBECDBFDF91CF911F910F91BF9097
:10050000AF909F908F900895E95CE1CFCF93DF93F8
:10051000EC0188819981009729F02A813B81233061
:10052000310590F464E070E00E94490D0097C1F03D
:100530009983888323E030E03B832A832C813D81AB
:10054000232B11F4FC01108283E090E09D838C83C7
:1005500068E171E088819981DF91CF910C94180E48
:1005600088819981009711F00E94C00C198218822D
:100570001D821C821B821A82DF91CF9108951F92E7
:100580000F920FB60F9211242F933F938F939F9347
:10059000AF93BF938091840190918501A0918601D2
:1005A000B09187013091830123E0230F2D3758F557
:1005B0000196A11DB11D2093830180938401909326
:1005C0008501A0938601B093870180917F0190916E
:1005D0008001A0918101B09182010196A11DB11D00
:1005E00080937F0190938001A0938101B093820159
:1005F000BF91AF919F918F913F912F910F900FBE1F
:100600000F901F90189526E8230F0296A11DB11D8B
:10061000D2CF1F920F920FB60F9211242F933F93B8
:100620004F935F936F937F938F939F93AF93BF93FA
:10063000EF93FF9388E891E00E94A601FF91EF916C
:10064000BF91AF919F918F917F916F915F914F91EA
:100650003F912F910F900FBE0F901F9018951F92F2
:100660000F920FB60F9211242F938F939F93EF93B6
:10067000FF93E0919801F09199018081E0919E01B2
:10068000F0919F0182FD1BC090818091A1018F5F3D
:100690008F732091A201821741F0E091A101F0E057
:1006A000E857FE4F958F8093A101FF91EF919F91A5
:1006B0008F912F910F900FBE0F901F9018958081F2
:1006C000F4CF1F920F920FB60F9211242F933F93E6
:1006D0004F935F936F937F938F939F93AF93BF934A
:1006E000CF93DF93EF93FF9380914801C09149022C
:1006F000D0E087FF24C01092850010928400809182
:1007000048018F5F8093480180914801082E000CBA
:10071000990B8C179D0724F4809148018C30C4F10B
:10072000809184009091850004968037974108F469
:100730007AC08091840090918500049676C0809163
:100740004801082E000C990B8C179D07C4F6E09108
:1007500048018E2FEE0F990BFC01EE0FFF1FE80FE3
:10076000F91FEB5DFD4F808186FFC9CFE091480105
:100770008E2FEE0F990BFC01EE0FFF1FE80FF91FF4
:10078000EB5DFD4F808160E08F730E94DC00B7CF8E
:100790002091840030918500E09148018E2FEE0F6A
:1007A000990BFC01EE0FFF1FE80FF91FEB5DFD4FEA
:1007B00081819281820F931F90938900809388009A
:1007C000E09148018E2FEE0F990BFC01EE0FFF1FF9
:1007D000E80FF91FEB5DFD4F808186FF11C0E091AE
:1007E00048018E2FEE0F990BFC01EE0FFF1FE80F53
:1007F000F91FEB5DFD4F808161E08F730E94DC008B
:10080000FF91EF91DF91CF91BF91AF919F918F9128
:100810007F916F915F914F913F912F910F900FBEFC
:100820000F901F90189580E797E19093890080932F
:1008300088008FEF80934801E3CFFC018081918194
:10084000009711F00C94C00C08958DE492E00E9482
:100850001D0483E592E00E941D0489E592E00C945A
:100860001D0410928B0110928A0188EE93E0A0E0A3
:10087000B0E080938C0190938D01A0938E01B09392
:100880008F018AE091E0909389018093880185EC43
:1008900090E0909395018093940184EC90E0909384
:1008A00097018093960180EC90E09093990180935A
:1008B000980181EC90E090939B0180939A0182ECE7
:1008C00090E090939D0180939C0186EC90E0909342
:1008D0009F0180939E011092A1011092A20110929B
:1008E000A3011092A40110925A0210925902109280
:1008F0005C0210925B0210925E0210925D0289E52A
:1009000092E00E948602809149028C3090F591E03D
:10091000980F9093490280934A0290E0FC01EE0FF9
:10092000FF1FE80FF91FEB5DFD4F88EB9BE0928303
:100930008183109254021092530210925602109228
:100940005502109258021092570283E592E00E94DD
:10095000860210924E0210924D0210925002109296
:100960004F0210925202109251028DE492E00C94C8
:1009700086028FEF80934A02DCCF789484B5826040
:1009800084BD84B5816084BD85B5826085BD85B533
:10099000816085BD80916E00816080936E001092B1
:1009A000810080918100826080938100809181002C
:1009B00081608093810080918000816080938000BD
:1009C0008091B10084608093B1008091B00081601B
:1009D0008093B00080917A00846080937A00809147
:1009E0007A00826080937A0080917A00816080939F
:1009F0007A0080917A00806880937A001092C1001A
:100A0000E0919801F091990182E08083E091940156
:100A1000F09195011082E0919601F091970180E1AB
:100A200080831092A001E0919C01F0919D0186E0ED
:100A30008083E0919A01F0919B01808180618083A5
:100A4000E0919A01F0919B01808188608083E09120
:100A50009A01F0919B01808180688083E0919A01E6
:100A6000F0919B0180818F7D808380914A028C3040
:100A700008F068C0E4EDF0E02491E0ECF0E084914F
:100A8000882399F090E0880F991FFC01ED55FF4FE6
:100A9000A591B491FC01E355FF4F859194918FB7D7
:100AA000F894EC91E22BEC938FBF80914A02282FAF
:100AB00030E0F901EE0FFF1FE20FF31FEB5DFD4F7A
:100AC0009081907C9960908310924B0210924C021E
:100AD0002CE0622F0E94120C829FB001112430E0A2
:100AE00020E0AB01420F531FFA01EE0FFF1FE40F8E
:100AF000F51FEB5DFD4F908196FD16C02F5F3F4FB8
:100B00002C30310571F781110FC01092800082E006
:100B1000809381001092850010928400B19A809198
:100B20006F00826080936F00E0914A028E2F90E008
:100B3000FC01EE0FFF1FE80FF91FEB5DFD4F8081F9
:100B4000806480835CE6252E51E0352E0DE511E0B2
:100B5000CBE9DFE060E0A62E60E0B62E8824839427
:100B600088E891E00E948601181619060CF0DCC195
:100B70004CE6C42E41E0D42EF12CE12C2FB7F89492
:100B80008091840190918501A0918601B0918701A7
:100B90002FBF8093900190939101A0939201B09305
:100BA000930188E891E00E94640197FFFDC12FB78F
:100BB000F8948091840190918501A0918601B09173
:100BC00087012FBF40919001509191016091920156
:100BD00070919301841B950BA60BB70B40918C0170
:100BE00050918D0160918E0170918F01841795074E
:100BF000A607B707B0F2ADE5B1E0ECE6F1E0CF0152
:100C00008C5691408E159F0524F180915C01EDE595
:100C1000F1E090E02191203211F02A3009F4892F7F
:100C20009F5F9F30B9F780935C01E5E5F1E097E0C5
:100C300011929A95E9F790E0A5E5B1E0EDE5F1E0D4
:100C40009F012D5531402817390734F421912D93F8
:100C5000F7CF81918D93D3CFFC01E25AFE4FADE4E3
:100C6000B1E0CF018D5591400F971CF481918D9388
:100C7000F8CF8DE491E00E94E4076B017C016CE108
:100C800071E085E591E00E940F0E892B09F066C0A6
:100C900020E030E040E050E4C701B6010E94080CBB
:100CA00018160CF451C020E030E0A901C701B601CC
:100CB0000E94590987FD4EC020E030EC47E654EC15
:100CC000C701B6010E94BF0920E030E040E05FE3C9
:100CD0000E94BF0920E030E64EEE54E40E94F40A80
:100CE0006B017C010E94D20B70937D0160937C01AB
:100CF00020E030E64EEE54E4C701B6010E94F30A4C
:100D00009B01AC010E94F40A20E030EC47E654EC71
:100D10000E94600B20E030E0A9010E94F40A609379
:100D2000490170934A0180934B0190934C011092BA
:100D30007E01F1018FE011928A95E9F7F8018FE0C9
:100D400011928A95E9F70CCFC12CD12CE12C30E41B
:100D5000F32EB2CFC12CD12C7601AECF63E271E07D
:100D600085E591E00E940F0E892B09F0A6C0C09086
:100D70004901D0904A01E0904B01F0904C01A7014D
:100D80009601C701B6010E940D0C882349F08AE242
:100D900091E00E94350286E391E00E943502C9CFBE
:100DA00026013701E89477F82FEF3FEF4FE75FE731
:100DB000C301B2010E940D0C81110DC02FEF3FEF56
:100DC0004FE75FE7C301B2010E94590918161CF4EE
:100DD0008EE291E0DECF2FEF3FEF4FE75FE4C701F8
:100DE000B6010E94080C18161CF482E391E0D1CFE2
:100DF0002FEF3FEF4FE75FECC701B6010E945909A3
:100E000087FDF3CF20E030E0A901C701B6010E94C1
:100E1000590987FF09C06DE288E891E00E94C80186
:100E2000F7FAF094F7F8F0942CEB37E346E055E34B
:100E3000C701B6010E94F40A6B017C010E94D90B24
:100E40002B013C010E945E099B01AC01C701B60168
:100E50000E94F30A6B017C014AE0C301B2010E94C7
:100E600042026EE288E891E00E94C80127E0922EDB
:100E70009A94992009F48FCF20E030E040E251E4C9
:100E8000C701B6010E94BF092B013C010E94D90B8A
:100E90006B01F12CE12C4AE0C701B6010E9442022D
:100EA000C701B6010E945E099B01AC01C301B201FA
:100EB0000E94F30A6B017C01DBCF69E371E085E5F9
:100EC00091E00E940F0E892BC9F420E030E040E849
:100ED0005FE3C701B6010E945909811103C08092E6
:100EE0007B0127CF20E030E0A901C701B6010E94B5
:100EF000590981111ECF10927B011BCF60E471E074
:100F000085E591E00E940F0E892B09F012CF4091E8
:100F100051025091520260914D0270914E0288E848
:100F200091E00E94280137CF80917E01811108C095
:100F300080917C0190917D010E94A60080927E01AB
:100F400080917B01882321F194EDE92E93E0F92E25
:100F5000C7010E94A600CE010197F1F79FEFE91AA1
:100F6000F90AE4E7EE16E7E0FE0691F783E7E82EDC
:100F700087E0F82EC7010E94A600CE010197F1F785
:100F8000F1E0EF1AF10883EDE81683E0F80691F737
:100F9000A114B10409F4E4CD0E949201882309F45C
:100FA000DDCD0E940000DACD8A30910509F423CE10
:100FB000F60181936F01FFEFEF1AFF0A8FE0E81649
:100FC000F10409F0DBCD17CE662777270C94E807EC
:100FD000B0E0A0E0EEEEF7E00C94910A5C017B013A
:100FE0006115710519F0DB018D939C9385010F5FED
:100FF0001F4FF501D0818D2F90E00E9438096C01C0
:10100000892BB9F5DD32B9F50F5F1F4FD501119668
:10101000DC91C1E05801F1E0AF1AB10843E050E0C3
:1010200060E770E0C5010E944109892B69F56801FC
:1010300082E0C80ED11C45E050E06BE670E0C601CE
:101040000E944109892B21F4680197E0C90ED11C47
:10105000E114F10419F0D701CD92DC9260E070E068
:1010600080E89FEFC111FFC060E070E080E89FE77B
:10107000FAC05801BBCFDB3229F485010E5F1F4F48
:10108000F501D181C0E0C6CF43E050E068E670E0F2
:10109000C5010E944109892BE9F0F80110E000E048
:1010A00020E030E0A9015F01B0ED8B2E8D0E89E0CC
:1010B0008815C8F19C2E689491F88C2F8870C2FF17
:1010C00016C0811102C00F5F1F4F3196D501DC9110
:1010D000C92DE9CFE114F10429F00E5F1F4FF7018C
:1010E0001183008360E070E080EC9FE7BCC0882340
:1010F00011F001501109A5E0B0E00E94800A9B01A7
:10110000AC01220F331F441F551F280D311D411DF7
:10111000511D283999E93907490799E15907A8F27A
:10112000C6609C2ED2CFAEEF8A1206C0C3FD3CC073
:101130009C2E689493F8C9CFDF7DD534A9F58081C2
:101140008D3239F4C061DF011296818162E070E076
:1011500006C0DF018B32C1F3119661E070E080536D
:101160005D01A61AB70A8A30F8F4E0E8CE16ECE082
:10117000DE065CF4B601660F771F660F771FC60E9A
:10118000D71ECC0CDD1CC80ED11C5D01FFEFAF1AC1
:10119000BF0A8C9180538A30A8F1C4FF03C0D19458
:1011A000C194D1080C0D1D1DC1FF09C0E114F1044B
:1011B00031F081E0A81AB108D701AD92BC92CA0102
:1011C000B9010E945E09C370C33009F490584B0105
:1011D0005C0120E030E0A9010E945909882309F44C
:1011E00040C0CFE9D0E017FF05C011950195110966
:1011F000C7E8D0E06E01B8E1CB1AD10880E2E82E52
:10120000F12C0FC0D501B1CFFE012591359145914B
:1012100054910E191F09C501B4010E94BF094B0169
:101220005C01D501C4010E151F0574F72497F594D0
:10123000E794CC16DD06A9F78A2F880F8B2F881F1D
:101240008F3F49F020E030E0A901C501B4010E94C0
:101250005909811106C082E290E090936002809368
:101260005F02C501B401CDB7DEB7ECE00C94AD0A66
:1012700091110C942C0A803219F089508550C8F7CE
:101280000895FB01DC014150504088F08D9181347C
:101290001CF08B350CF4805E659161341CF06B356D
:1012A0000CF4605E861B611171F3990B0895881B25
:1012B000FCCF0E949B0908F481E00895E89409C0DE
:1012C00097FB3EF490958095709561957F4F8F4F79
:1012D0009F4F9923A9F0F92F96E9BB279395F6958F
:1012E000879577956795B795F111F8CFFAF4BB0F0D
:1012F00011F460FF1BC06F5F7F4F8F4F9F4F16C071
:10130000882311F096E911C0772321F09EE8872FFA
:10131000762F05C0662371F096E8862F70E060E0B6
:101320002AF09A95660F771F881FDAF7880F96952F
:10133000879597F90895990F0008550FAA0BE0E8D3
:10134000FEEF16161706E807F907C0F01216130687
:10135000E407F50798F0621B730B840B950B39F4C7
:101360000A2661F0232B242B252B21F408950A262D
:1013700009F4A140A6958FEF811D811D08950E945B
:10138000D2090C94460A0E94380A38F00E943F0A9B
:1013900020F0952311F00C942F0A0C94350A112497
:1013A0000C947A0A0E94570A70F3959FC1F3950F27
:1013B00050E0551F629FF001729FBB27F00DB11DD9
:1013C000639FAA27F00DB11DAA1F649F6627B00D69
:1013D000A11D661F829F2227B00DA11D621F739F52
:1013E000B00DA11D621F839FA00D611D221F749F60
:1013F0003327A00D611D231F849F600D211D822FA7
:10140000762F6A2F11249F5750409AF0F1F08823CD
:101410004AF0EE0FFF1FBB1F661F771F881F9150FA
:101420005040A9F79E3F510580F00C942F0A0C9470
:101430007A0A5F3FE4F3983ED4F3869577956795F3
:10144000B795F795E7959F5FC1F7FE2B880F911D24
:101450009695879597F9089599278827089597F97C
:101460009F6780E870E060E008959FEF80EC08954A
:1014700000240A9416161706180609060895002473
:101480000A9412161306140605060895092E0394ED
:10149000000C11F4882352F0BB0F40F4BF2B11F461
:1014A00060FF04C06F5F7F4F8F4F9F4F089557FDC0
:1014B0009058440F551F59F05F3F71F04795880FC2
:1014C00097FB991F61F09F3F79F087950895121659
:1014D00013061406551FF2CF4695F1DF08C0161605
:1014E00017061806991FF1CF8695710561050894B6
:1014F0000895E894BB2766277727CB0197F90895CD
:101500000E94E40AA59F900DB49F900DA49F800DAA
:10151000911D112408952F923F924F925F926F92E6
:101520007F928F929F92AF92BF92CF92DF92EF9273
:10153000FF920F931F93CF93DF93CDB7DEB7CA1BF4
:10154000DB0B0FB6F894DEBF0FBECDBF09942A881F
:10155000398848885F846E847D848C849B84AA84C7
:10156000B984C884DF80EE80FD800C811B81AA8154
:10157000B981CE0FD11D0FB6F894DEBF0FBECDBF1F
:10158000ED010895A1E21A2EAA1BBB1BFD010DC09F
:10159000AA1FBB1FEE1FFF1FA217B307E407F50723
:1015A00020F0A21BB30BE40BF50B661F771F881FFF
:1015B000991F1A9469F760957095809590959B0195
:1015C000AC01BD01CF010895A29FB001B39FC0013E
:1015D000A39F700D811D1124911DB29F700D811D5F
:1015E0001124911D08955058BB27AA270E940B0B68
:1015F0000C94460A0E94380A38F00E943F0A20F0F4
:1016000039F49F3F19F426F40C94350A0EF4E09552
:10161000E7FB0C942F0AE92F0E94570A58F3BA17D8
:10162000620773078407950720F079F4A6F50C94F8
:10163000790A0EF4E0950B2EBA2FA02D0B01B901FB
:1016400090010C01CA01A0011124FF27591B99F038
:10165000593F50F4503E68F11A16F040A22F232F44
:10166000342F4427585FF3CF469537952795A79594
:10167000F0405395C9F77EF41F16BA0B620B730B3B
:10168000840BBAF09150A1F0FF0FBB1F661F771FAC
:10169000881FC2F70EC0BA0F621F731F841F48F461
:1016A000879577956795B795F7959E3F08F0B0CFEA
:1016B0009395880F08F09927EE0F979587950895D1
:1016C0000E94740B0C94460A0E943F0A58F00E9434
:1016D000380A40F029F45F3F29F00C942F0A511189
:1016E0000C947A0A0C94350A0E94570A68F39923DD
:1016F000B1F3552391F3951B550BBB27AA2762170E
:101700007307840738F09F5F5F4F220F331F441F1A
:10171000AA1FA9F335D00E2E3AF0E0E832D091504E
:101720005040E695001CCAF72BD0FE2F29D0660F3B
:10173000771F881FBB1F261737074807AB07B0E87E
:1017400009F0BB0B802DBF01FF2793585F4F3AF084
:101750009E3F510578F00C942F0A0C947A0A5F3F53
:10176000E4F3983ED4F3869577956795B795F7950A
:101770009F5FC9F7880F911D9695879597F90895F2
:10178000E1E0660F771F881FBB1F6217730784078E
:10179000BA0720F0621B730B840BBA0BEE1F88F79D
:1017A000E09508950E94D90B6894B1110C947A0ABF
:1017B00008950E945F0A88F09F5798F0B92F9927E3
:1017C000B751B0F0E1F0660F771F881F991F1AF02C
:1017D000BA95C9F714C0B13091F00E94790AB1E00E
:1017E00008950C94790A672F782F8827B85F39F00D
:1017F000B93FCCF3869577956795B395D9F73EF4C5
:1018000090958095709561957F4F8F4F9F4F08956C
:101810000E949B0908F48FEF08950E949B09880B92
:10182000990B0895991B79E004C0991F961708F049
:10183000961B881F7A95C9F780950895EE0FFF1FB4
:101840000590F491E02D09940F931F93CF93DF93AC
:101850008230910510F482E090E0E0916302F09113
:10186000640230E020E0B0E0A0E0309799F4211568
:10187000310509F44AC0281B390B24303105D8F54D
:101880008A819B816115710589F1FB0193838283B4
:10189000FE0111C04081518102811381481759070F
:1018A000E0F04817590799F4109761F012960C93DD
:1018B000129713961C933296CF01DF91CF911F910F
:1018C0000F9108950093630210936402F4CF2115E1
:1018D000310551F04217530738F0A901DB019A0195
:1018E000BD01DF01F801C1CFEF01F9CF9093640290
:1018F00080936302CDCFFE01E20FF31F819391939A
:101900002250310939832883D7CF20916102309149
:101910006202232B41F420910201309103013093A4
:101920006202209361022091000130910101211592
:10193000310541F42DB73EB74091040150910501A6
:10194000241B350BE0916102F0916202E217F3076C
:10195000A0F42E1B3F0B2817390778F0AC014E5F1F
:101960005F4F2417350748F04E0F5F1F50936202F8
:1019700040936102819391939FCFF0E0E0E09CCF90
:10198000CF93DF930097E9F0FC0132971382128224
:10199000A0916302B0916402ED0130E020E0109765
:1019A000A1F420813181820F931F20916102309137
:1019B00062022817390709F061C0F0936202E093D0
:1019C0006102DF91CF910895EA01CE17DF07E8F5B4
:1019D0004A815B819E0141155105B1F7E901FB8305
:1019E000EA8349915991C40FD51FEC17FD0761F4A3
:1019F000808191810296840F951FE90199838883E4
:101A0000828193819B838A83F0E0E0E012968D913E
:101A10009C9113970097B9F52D913C911197CD01A9
:101A20000296820F931F2091610230916202281763
:101A3000390739F6309751F510926402109263021B
:101A4000B0936202A0936102BCCFD383C283408172
:101A50005181840F951FC817D90761F44E5F5F4FFE
:101A600088819981480F591F518340838A819B81C6
:101A7000938382832115310509F0B0CFF09364027E
:101A8000E09363029ECFFD01DC01C0CF138212827E
:101A9000D7CFB0E0A0E0EFE4FDE00C948D0A8C011C
:101AA000009751F4CB010E94240C8C01C801CDB7E2
:101AB000DEB7E0E10C94A90AFC01E60FF71F9C01D8
:101AC00022503109E217F30708F49DC0D901CD91E6
:101AD000DC911197C617D70798F0C530D10530F3C0
:101AE000CE0104978617970708F3C61BD70B2297DA
:101AF000C193D1936D937C93CF010E94C00CD6CF3C
:101B00005B01AC1ABD0A4C018C0E9D1EA0916302B4
:101B1000B0916402512C412CF12CE12C109731F53D
:101B200080916102909162028815990509F05CC06C
:101B30004616570608F058C08091000190910101A7
:101B4000009741F48DB79EB7409104015091050173
:101B5000841B950BE817F90708F055C0F093620253
:101B6000E0936102F90171836083A0CF8D919C9114
:101B7000119712966C90129713967C901397A81554
:101B8000B90559F56C0142E0C40ED11CCA14DB043E
:101B900020F1AC014A195B09DA011296159780F021
:101BA0006282738251834083D9016D937C93E114E7
:101BB000F10471F0D7011396FC93EE93129776CF50
:101BC00022968C0F9D1FF90191838083F301EFCF43
:101BD000F0936402E093630269CF4816590608F453
:101BE0002C017D01D3019ACFCB010E94240C7C01F2
:101BF000009749F0AE01B8010E94060EC8010E948C
:101C0000C00C870153CF10E000E050CFFB01DC0196
:101C100002C001900D9241505040D8F70895FB0149
:101C2000DC018D91019080190110D9F3990B089571
:101C3000FB01DC0101900D920020E1F7089510E016
:101C4000CBE7D0E004C0FE010E941E0C2196CC37E9
:081C5000D107C9F7F894FFCF9A
:101C580000006502800000000000C801280155014D
:101C68001502860164017801312E310073657450C4
:101C78006F7300676574506F73006E616E00696EF4
:101C880066006F7666000D0A0074657374617300F0
:081C98006765745665720000D7
:00000001FF
