:100000000C947C000C94A4000C94A4000C94A40008
:100010000C94A4000C94A4000C94A4000C94A400D0
:100020000C94A4000C94A4000C94A4000C94610300
:100030000C94A4000C94A4000C94A4000C94A400B0
:100040000C94BF020C94A4000C942F030C9409038D
:100050000C94A4000C94A4000C94A4000C94A40090
:100060000C94A4000C94A4004E414E494E4954599E
:10007000494E46CDCCCC3D0AD7233C17B7D1387773
:10008000CC2B329595E6241FB14F0A000020410089
:1000900000C84200401C4620BCBE4CCA1B0E5AAED3
:1000A000C59D7400000000240027002A0000000005
:1000B00000250028002B00040404040404040402A6
:1000C00002020202020303030303030102040810F5
:1000D00020408001020408102001020408102000C2
:1000E00000000800020100000304070000000000F7
:1000F000000000003104250411241FBECFEFD8E01A
:10010000DEBFCDBF11E0A0E0B1E0E0E5FCE102C060
:1001100005900D92A834B107D9F722E0A8E4B1E028
:1001200001C01D92A436B207E1F710E0CBE7D0E0A2
:1001300004C02197FE010E941A0CCA37D107C9F7E3
:100140000E94BD040C941B0E0C940000E091490227
:10015000EC3088F540914A0228E830E0241B310950
:1001600047FD3395220F331F220F331F821793074A
:1001700084F040914B0228E532E0241B310947FD11
:100180003395220F331F220F331F821793070CF46E
:100190009C0122503109220F331F4FB7F8948E2F44
:1001A00090E0FC01EE0FFF1FE80FF91FEC5DFD4F23
:1001B000328321834FBF089590E0FC01E152FF4F4D
:1001C0002491FC01E553FF4F3491FC01E954FF4FAA
:1001D000E491EE23C9F0222339F0233001F1A8F491
:1001E000213019F1223029F1F0E0EE0FFF1FE35525
:1001F000FF4FA591B4918FB7F894EC91611126C08F
:1002000030953E233C938FBF08952730A9F02830C6
:10021000C9F0243049F7809180008F7D03C0809120
:1002200080008F7780938000DFCF84B58F7784BD87
:10023000DBCF84B58F7DFBCF8091B0008F7780932B
:10024000B000D2CF8091B0008F7DF9CF3E2BDACFB6
:10025000AF92BF92CF92DF92EF92FF920F931F93D4
:10026000CF93DF936C017B018B01040F151FEB0112
:100270005E01AE18BF08C017D10759F06991D601C9
:10028000ED91FC910190F081E02DC6010995892B3B
:1002900079F7C501DF91CF911F910F91FF90EF90FA
:1002A000DF90CF90BF90AF900895FC01538D448DA7
:1002B000252F30E0842F90E0821B930B541710F011
:1002C000CF96089501970895FC01918D828D98171E
:1002D00061F0A28DAE0FBF2FB11D5D968C91928DF6
:1002E0009F5F9F73928F90E008958FEF9FEF089527
:1002F000FC01918D828D981731F0828DE80FF11DF0
:10030000858D90E008958FEF9FEF0895FC01918D0A
:10031000228D892F90E0805C9F4F821B91098F7303
:100320009927089587E891E00E94860121E0892BB2
:1003300009F420E0822F089580E090E0892B29F0D5
:100340000E94920181110C9400000895FC01A48D7B
:10035000A80FB92FB11DA35ABF4F2C91848D90E0E7
:1003600001968F739927848FA689B7892C93A089CA
:10037000B1898C91837080648C93938D848D981354
:1003800006C00288F389E02D80818F7D80830895E7
:10039000EF92FF920F931F93CF93DF93EC0181E0D5
:1003A000888F9B8D8C8D98131AC0E889F98980817C
:1003B00085FF15C09FB7F894EE89FF896083E889AF
:1003C000F98980818370806480839FBF81E090E0A1
:1003D000DF91CF911F910F91FF90EF900895F62E2E
:1003E0000B8D10E00F5F1F4F0F731127E02E8C8DC8
:1003F0008E110CC00FB607FCFACFE889F98980810D
:1004000085FFF5CFCE010E94A601F1CFEB8DEC0F59
:10041000FD2FF11DE35AFF4FF0829FB7F8940B8F29
:10042000EA89FB8980818062CFCFCF93DF93EC0193
:10043000888D8823B9F0AA89BB89E889F9898C91CC
:1004400085FD03C0808186FD0DC00FB607FCF7CF88
:100450008C9185FFF2CF808185FFEDCFCE010E9488
:10046000A601E9CFDF91CF910895FC010190002012
:10047000E9F73197AF01481B590BBC0187E891E0C0
:100480000C9428018F929F92AF92BF920F931F936B
:10049000CF93DF93CDB7DEB7A1970FB6F894DEBF49
:1004A0000FBECDBF19A2423008F44AE08E010F5DA5
:1004B0001F4F842E912CB12CA12CA50194010E94D8
:1004C000BE0AE62FB901CA01EA30F4F4E05DD801B2
:1004D000EE938D01232B242B252B79F790E080E0E0
:1004E000109719F0CD010E943502A1960FB6F8942D
:1004F000DEBF0FBECDBFDF91CF911F910F91BF9097
:10050000AF909F908F900895E95CE1CFCF93DF93F8
:10051000EC0188819981009729F02A813B81233061
:10052000310590F464E070E00E94450D0097C1F041
:100530009983888323E030E03B832A832C813D81AB
:10054000232B11F4FC01108283E090E09D838C83C7
:1005500068E171E088819981DF91CF910C94140E4C
:1005600088819981009711F00E94BC0C1982188231
:100570001D821C821B821A82DF91CF9108951F92E7
:100580000F920FB60F9211242F933F938F939F9347
:10059000AF93BF938091830190918401A0918501D5
:1005A000B09186013091820123E0230F2D3758F559
:1005B0000196A11DB11D2093820180938301909328
:1005C0008401A0938501B093860180917E01909172
:1005D0007F01A0918001B09181010196A11DB11D03
:1005E00080937E0190937F01A0938001B09381015D
:1005F000BF91AF919F918F913F912F910F900FBE1F
:100600000F901F90189526E8230F0296A11DB11D8B
:10061000D2CF1F920F920FB60F9211242F933F93B8
:100620004F935F936F937F938F939F93AF93BF93FA
:10063000EF93FF9387E891E00E94A601FF91EF916D
:10064000BF91AF919F918F917F916F915F914F91EA
:100650003F912F910F900FBE0F901F9018951F92F2
:100660000F920FB60F9211242F938F939F93EF93B6
:10067000FF93E0919701F09198018081E0919D01B5
:10068000F0919E0182FD1BC090818091A0018F5F3F
:100690008F732091A101821741F0E091A001F0E059
:1006A000E957FE4F958F8093A001FF91EF919F91A5
:1006B0008F912F910F900FBE0F901F9018958081F2
:1006C000F4CF1F920F920FB60F9211242F933F93E6
:1006D0004F935F936F937F938F939F93AF93BF934A
:1006E000CF93DF93EF93FF9380914801C09148022D
:1006F000D0E087FF24C01092850010928400809182
:1007000048018F5F8093480180914801082E000CBA
:10071000990B8C179D0724F4809148018C30C4F10B
:10072000809184009091850004968037974108F469
:100730007AC08091840090918500049676C0809163
:100740004801082E000C990B8C179D07C4F6E09108
:1007500048018E2FEE0F990BFC01EE0FFF1FE80FE3
:10076000F91FEC5DFD4F808186FFC9CFE091480104
:100770008E2FEE0F990BFC01EE0FFF1FE80FF91FF4
:10078000EC5DFD4F808160E08F730E94DC00B7CF8D
:100790002091840030918500E09148018E2FEE0F6A
:1007A000990BFC01EE0FFF1FE80FF91FEC5DFD4FE9
:1007B00081819281820F931F90938900809388009A
:1007C000E09148018E2FEE0F990BFC01EE0FFF1FF9
:1007D000E80FF91FEC5DFD4F808186FF11C0E091AD
:1007E00048018E2FEE0F990BFC01EE0FFF1FE80F53
:1007F000F91FEC5DFD4F808161E08F730E94DC008A
:10080000FF91EF91DF91CF91BF91AF919F918F9128
:100810007F916F915F914F913F912F910F900FBEFC
:100820000F901F90189580E797E19093890080932F
:1008300088008FEF80934801E3CFFC018081918194
:10084000009711F00C94BC0C08958CE492E00E9487
:100850001D0482E592E00E941D0488E592E00C945C
:100860001D0410928A011092890188EE93E0A0E0A5
:10087000B0E080938B0190938C01A0938D01B09395
:100880008E018AE091E0909388018093870185EC46
:1008900090E0909394018093930184EC90E0909386
:1008A00096018093950180EC90E09093980180935D
:1008B000970181EC90E090939A018093990182ECEA
:1008C00090E090939C0180939B0186EC90E0909344
:1008D0009E0180939D011092A0011092A10110929F
:1008E000A2011092A3011092590210925802109284
:1008F0005B0210925A0210925D0210925C0288E52F
:1009000092E00E948602809148028C3090F591E03E
:10091000980F909348028093490290E0FC01EE0FFB
:10092000FF1FE80FF91FEC5DFD4F88EB9BE0928302
:10093000818310925302109252021092550210922B
:100940005402109257021092560282E592E00E94E1
:10095000860210924D0210924C0210924F02109299
:100960004E0210925102109250028CE492E00C94CC
:1009700086028FEF80934902DCCF789484B5826041
:1009800084BD84B5816084BD85B5826085BD85B533
:10099000816085BD80916E00816080936E001092B1
:1009A000810080918100826080938100809181002C
:1009B00081608093810080918000816080938000BD
:1009C0008091B10084608093B1008091B00081601B
:1009D0008093B00080917A00846080937A00809147
:1009E0007A00826080937A0080917A00816080939F
:1009F0007A0080917A00806880937A001092C1001A
:100A0000E0919701F091980182E08083E091930159
:100A1000F09194011082E0919501F091960180E1AE
:100A2000808310929F01E0919B01F0919C0186E0F0
:100A30008083E0919901F0919A01808180618083A7
:100A4000E0919901F0919A01808188608083E09122
:100A50009901F0919A01808180688083E0919901E9
:100A6000F0919A0180818F7D8083809149028C3042
:100A700008F068C0E4EDF0E02491E0ECF0E084914F
:100A8000882399F090E0880F991FFC01ED55FF4FE6
:100A9000A591B491FC01E355FF4F859194918FB7D7
:100AA000F894EC91E22BEC938FBF80914902282FB0
:100AB00030E0F901EE0FFF1FE20FF31FEC5DFD4F79
:100AC0009081907C9960908310924A0210924B0220
:100AD0002CE0622F0E940E0C829FB001112430E0A6
:100AE00020E0AB01420F531FFA01EE0FFF1FE40F8E
:100AF000F51FEC5DFD4F908196FD16C02F5F3F4FB7
:100B00002C30310571F781110FC01092800082E006
:100B1000809381001092850010928400B19A809198
:100B20006F00826080936F00E09149028E2F90E009
:100B3000FC01EE0FFF1FE80FF91FEC5DFD4F8081F8
:100B40008064808365E5262E61E0362E0CE611E098
:100B50007DE5A72E71E0B72ECBE9DFE05FE0852EC3
:100B600087E891E00E948601181619060CF0DDC195
:100B70004CE6C42E41E0D42EF12CE12C2FB7F89492
:100B80008091830190918401A0918501B0918601AB
:100B90002FBF80938F0190939001A0939101B09308
:100BA000920187E891E00E94640197FFF9C12FB795
:100BB000F8948091830190918401A0918501B09176
:100BC00086012FBF40918F0150919001609191015A
:100BD00070919201841B950BA60BB70B40918B0172
:100BE00050918C0160918D0170918E018417950751
:100BF000A607B707B0F2ADE5B1E0ECE6F1E0CF0152
:100C00008C5691408E159F0534F1E0915C01ADE565
:100C1000B1E080E09D91903211F09A3009F4E82F14
:100C20008F5F8F30B9F7E0935C01D101F7E01D923F
:100C3000FA95E9F74E2F50E085E591E0ADE5B1E09A
:100C40009D012D5531402417350744F42D91FC01A9
:100C50002193CF01F5CF81918D93D1CFFA01E25A43
:100C6000FE4FADE4B1E0CF018D5591400F971CF4DC
:100C700081918D93F8CF8DE491E00E94E0076B01A4
:100C80007C016CE171E085E591E00E940B0E892BFF
:100C900009F064C020E030E040E050E4C701B60154
:100CA0000E94040C18160CF44FC020E030E0A9019B
:100CB000C701B6010E94550987FD4CC020E030EC09
:100CC00047E654ECC701B6010E94BB0920E030E0C2
:100CD00040E05FE30E94BB0920E030E64EEE54E4C2
:100CE0000E94F00A6B017C010E94CE0B70937D0183
:100CF00060937C0120E030E64EEE54E4C701B6017B
:100D00000E94EF0A9B01AC010E94F00A20E030EC47
:100D100047E654EC0E945C0B20E030E0A9010E9401
:100D2000F00A6093490170934A0180934B019093BC
:100D30004C01D801E82D1D92EA95E9F7D501E82D7F
:100D40001D92EA95E9F70CCFC12CD12CE12C30E4AF
:100D5000F32EB4CFC12CD12C7601B0CF63E271E079
:100D600085E591E00E940B0E892B09F0A6C0C0908A
:100D70004901D0904A01E0904B01F0904C01A7014D
:100D80009601C701B6010E94090C882349F08AE246
:100D900091E00E94350286E391E00E943502C9CFBE
:100DA00026013701E89477F82FEF3FEF4FE75FE731
:100DB000C301B2010E94090C81110DC02FEF3FEF5A
:100DC0004FE75FE7C301B2010E94550918161CF4F2
:100DD0008EE291E0DECF2FEF3FEF4FE75FE4C701F8
:100DE000B6010E94040C18161CF482E391E0D1CFE6
:100DF0002FEF3FEF4FE75FECC701B6010E945509A7
:100E000087FDF3CF20E030E0A901C701B6010E94C1
:100E1000550987FF09C06DE287E891E00E94C8018B
:100E2000F7FAF094F7F8F0942CEB37E346E055E34B
:100E3000C701B6010E94F00A6B017C010E94D50B2C
:100E40002B013C010E945A099B01AC01C701B6016C
:100E50000E94EF0A6B017C014AE0C301B2010E94CB
:100E600042026EE287E891E00E94C80127E0922EDC
:100E70009A94992009F48FCF20E030E040E251E4C9
:100E8000C701B6010E94BB092B013C010E94D50B92
:100E90006B01F12CE12C4AE0C701B6010E9442022D
:100EA000C701B6010E945A099B01AC01C301B201FE
:100EB0000E94EF0A6B017C01DBCF69E371E085E5FD
:100EC00091E00E940B0E892BD1F420E030E040E845
:100ED0005FE3C701B6010E945509811104C0F1E02A
:100EE000F0937B0126CF20E030E0A901C701B601D5
:100EF0000E94550981111DCF10927B011ACF60E429
:100F000071E085E591E00E940B0E892B09F011CF6D
:100F1000409150025091510260914C0270914D02EB
:100F200087E891E00E94280136CF80917C01909162
:100F30007D010E94A60080917B01882321F194ED20
:100F4000E92E93E0F92EC7010E94A600CE01019779
:100F5000F1F7FFEFEF1AFF0A84E7E81687E0F806DB
:100F600091F783E7E82E87E0F82EC7010E94A600DC
:100F7000CE010197F1F7A1E0EA1AF108B3EDEB1603
:100F8000B3E0FB0691F780E090E0892B09F4E8CD0F
:100F90000E949201882309F4E3CD0E940000DECD77
:100FA0008A30910509F427CED6018D936D01BFEFEC
:100FB000EB1AFB0AEFE0EE16F10409F0DFCD1BCED1
:100FC000662777270C94E407B0E0A0E0EAEEF7E0AC
:100FD0000C948D0A5C017B016115710519F0DB0130
:100FE0008D939C9385010F5F1F4FF501D0818D2F4D
:100FF00090E00E9434096C01892BB9F5DD32B9F516
:101000000F5F1F4FD5011196DC91C1E05801F1E04F
:10101000AF1AB10843E050E060E770E0C5010E94FC
:101020003D09892B69F5680182E0C80ED11C45E0B5
:1010300050E06BE670E0C6010E943D09892B21F467
:10104000680197E0C90ED11CE114F10419F0D70131
:10105000CD92DC9260E070E080E89FEFC111FFC0AC
:1010600060E070E080E89FE7FAC05801BBCFDB3258
:1010700029F485010E5F1F4FF501D181C0E0C6CF75
:1010800043E050E068E670E0C5010E943D09892B0D
:10109000E9F0F80110E000E020E030E0A9015F0194
:1010A000B0ED8B2E8D0E89E08815C8F19C2E6894CA
:1010B00091F88C2F8870C2FF16C0811102C00F5F9B
:1010C0001F4F3196D501DC91C92DE9CFE114F10410
:1010D00029F00E5F1F4FF7011183008360E070E07D
:1010E00080EC9FE7BCC0882311F001501109A5E0F6
:1010F000B0E00E947C0A9B01AC01220F331F441F09
:10110000551F280D311D411D511D283999E93907F9
:10111000490799E15907A8F2C6609C2ED2CFAEEFDD
:101120008A1206C0C3FD3CC09C2E689493F8C9CFB8
:10113000DF7DD534A9F580818D3239F4C061DF01BE
:101140001296818162E070E006C0DF018B32C1F34C
:10115000119661E070E080535D01A61AB70A8A30EB
:10116000F8F4E0E8CE16ECE0DE065CF4B601660FBB
:10117000771F660F771FC60ED71ECC0CDD1CC80E5E
:10118000D11C5D01FFEFAF1ABF0A8C9180538A30EA
:10119000A8F1C4FF03C0D194C194D1080C0D1D1D4A
:1011A000C1FF09C0E114F10431F081E0A81AB108CF
:1011B000D701AD92BC92CA01B9010E945A09C3700D
:1011C000C33009F490584B015C0120E030E0A901E4
:1011D0000E945509882309F440C0CFE9D0E017FFE9
:1011E00005C0119501951109C7E8D0E06E01B8E17D
:1011F000CB1AD10880E2E82EF12C0FC0D501B1CF77
:10120000FE0125913591459154910E191F09C50193
:10121000B4010E94BB094B015C01D501C4010E154C
:101220001F0574F72497F594E794CC16DD06A9F70B
:101230008A2F880F8B2F881F8F3F49F020E030E0E6
:10124000A901C501B4010E945509811106C082E2BD
:1012500090E090935F0280935E02C501B401CDB728
:10126000DEB7ECE00C94A90A91110C94280A8032A4
:1012700019F089508550C8F70895FB01DC014150F1
:10128000504088F08D9181341CF08B350CF4805ED9
:10129000659161341CF06B350CF4605E861B611146
:1012A00071F3990B0895881BFCCF0E94970908F4ED
:1012B00081E00895E89409C097FB3EF490958095ED
:1012C000709561957F4F8F4F9F4F9923A9F0F92F0C
:1012D00096E9BB279395F695879577956795B7958A
:1012E000F111F8CFFAF4BB0F11F460FF1BC06F5F70
:1012F0007F4F8F4F9F4F16C0882311F096E911C082
:10130000772321F09EE8872F762F05C0662371F0A2
:1013100096E8862F70E060E02AF09A95660F771FB6
:10132000881FDAF7880F9695879597F90895990F92
:101330000008550FAA0BE0E8FEEF16161706E8079F
:10134000F907C0F012161306E407F50798F0621BC0
:10135000730B840B950B39F40A2661F0232B242B95
:10136000252B21F408950A2609F4A140A6958FEFB4
:10137000811D811D08950E94CE090C94420A0E948D
:10138000340A38F00E943B0A20F0952311F00C94A7
:101390002B0A0C94310A11240C94760A0E94530AE9
:1013A00070F3959FC1F3950F50E0551F629FF001B8
:1013B000729FBB27F00DB11D639FAA27F00DB11DD1
:1013C000AA1F649F6627B00DA11D661F829F22275A
:1013D000B00DA11D621F739FB00DA11D621F839FE1
:1013E000A00D611D221F749F3327A00D611D231FB7
:1013F000849F600D211D822F762F6A2F11249F5705
:1014000050409AF0F1F088234AF0EE0FFF1FBB1F07
:10141000661F771F881F91505040A9F79E3F5105C6
:1014200080F00C942B0A0C94760A5F3FE4F3983E0C
:10143000D4F3869577956795B795F795E7959F5F70
:10144000C1F7FE2B880F911D9695879597F9089502
:1014500099278827089597F99F6780E870E060E0F2
:1014600008959FEF80EC089500240A94161617063D
:1014700018060906089500240A9412161306140685
:1014800005060895092E0394000C11F4882352F0E8
:10149000BB0F40F4BF2B11F460FF04C06F5F7F4FA0
:1014A0008F4F9F4F089557FD9058440F551F59F087
:1014B0005F3F71F04795880F97FB991F61F09F3F41
:1014C00079F087950895121613061406551FF2CF6A
:1014D0004695F1DF08C0161617061806991FF1CFBA
:1014E00086957105610508940895E894BB276627E1
:1014F0007727CB0197F908950E94E00AA59F900DE8
:10150000B49F900DA49F800D911D112408952F92DA
:101510003F924F925F926F927F928F929F92AF9283
:10152000BF92CF92DF92EF92FF920F931F93CF93D0
:10153000DF93CDB7DEB7CA1BDB0B0FB6F894DEBF67
:101540000FBECDBF09942A88398848885F846E848D
:101550007D848C849B84AA84B984C884DF80EE80D7
:10156000FD800C811B81AA81B981CE0FD11D0FB6E0
:10157000F894DEBF0FBECDBFED010895A1E21A2E93
:10158000AA1BBB1BFD010DC0AA1FBB1FEE1FFF1F27
:10159000A217B307E407F50720F0A21BB30BE40B77
:1015A000F50B661F771F881F991F1A9469F76095BE
:1015B0007095809590959B01AC01BD01CF01089578
:1015C000A29FB001B39FC001A39F700D811D112484
:1015D000911DB29F700D811D1124911D08955058C9
:1015E000BB27AA270E94070B0C94420A0E94340AC8
:1015F00038F00E943B0A20F039F49F3F19F426F49A
:101600000C94310A0EF4E095E7FB0C942B0AE92FB9
:101610000E94530A58F3BA176207730784079507A5
:1016200020F079F4A6F50C94750A0EF4E0950B2ED3
:10163000BA2FA02D0B01B90190010C01CA01A00124
:101640001124FF27591B99F0593F50F4503E68F17F
:101650001A16F040A22F232F342F4427585FF3CFC0
:10166000469537952795A795F0405395C9F77EF491
:101670001F16BA0B620B730B840BBAF09150A1F0DA
:10168000FF0FBB1F661F771F881FC2F70EC0BA0F60
:10169000621F731F841F48F4879577956795B795E8
:1016A000F7959E3F08F0B0CF9395880F08F09927E3
:1016B000EE0F9795879508950E94700B0C94420A3F
:1016C0000E943B0A58F00E94340A40F029F45F3F20
:1016D00029F00C942B0A51110C94760A0C94310ABF
:1016E0000E94530A68F39923B1F3552391F3951B94
:1016F000550BBB27AA2762177307840738F09F5F33
:101700005F4F220F331F441FAA1FA9F335D00E2E9F
:101710003AF0E0E832D091505040E695001CCAF70C
:101720002BD0FE2F29D0660F771F881FBB1F2617CF
:1017300037074807AB07B0E809F0BB0B802DBF01A6
:10174000FF2793585F4F3AF09E3F510578F00C9475
:101750002B0A0C94760A5F3FE4F3983ED4F3869507
:1017600077956795B795F7959F5FC9F7880F911D96
:101770009695879597F90895E1E0660F771F881F82
:10178000BB1F621773078407BA0720F0621B730B35
:10179000840BBA0BEE1F88F7E09508950E94D50BD5
:1017A0006894B1110C94760A08950E945B0A88F03F
:1017B0009F5798F0B92F9927B751B0F0E1F0660F15
:1017C000771F881F991F1AF0BA95C9F714C0B13056
:1017D00091F00E94750AB1E008950C94750A672F84
:1017E000782F8827B85F39F0B93FCCF38695779585
:1017F0006795B395D9F73EF490958095709561956E
:101800007F4F8F4F9F4F08950E94970908F48FEFE5
:1018100008950E949709880B990B0895991B79E008
:1018200004C0991F961708F0961B881F7A95C9F770
:1018300080950895EE0FFF1F0590F491E02D099417
:101840000F931F93CF93DF938230910510F482E0C2
:1018500090E0E0916202F091630230E020E0B0E0BD
:10186000A0E0309799F42115310509F44AC0281BEE
:10187000390B24303105D8F58A819B8161157105BA
:1018800089F1FB0193838283FE0111C04081518164
:101890000281138148175907E0F04817590799F456
:1018A000109761F012960C93129713961C93329630
:1018B000CF01DF91CF911F910F91089500936202A4
:1018C00010936302F4CF2115310551F042175307ED
:1018D00038F0A901DB019A01BD01DF01F801C1CF98
:1018E000EF01F9CF9093630280936202CDCFFE01A6
:1018F000E20FF31F8193919322503109398328839A
:10190000D7CF2091600230916102232B41F42091C6
:101910000201309103013093610220936002209113
:101920000001309101012115310541F42DB73EB779
:101930004091040150910501241B350BE091600298
:10194000F0916102E217F307A0F42E1B3F0B28175A
:10195000390778F0AC014E5F5F4F2417350748F028
:101960004E0F5F1F509361024093600281939193E9
:101970009FCFF0E0E0E09CCFCF93DF930097E9F0BA
:10198000FC01329713821282A0916202B09163022D
:10199000ED0130E020E01097A1F420813181820F29
:1019A000931F20916002309161022817390709F0D6
:1019B00061C0F0936102E0936002DF91CF910895DE
:1019C000EA01CE17DF07E8F54A815B819E014115E8
:1019D0005105B1F7E901FB83EA8349915991C40F9D
:1019E000D51FEC17FD0761F4808191810296840F69
:1019F000951FE90199838883828193819B838A83E0
:101A0000F0E0E0E012968D919C9113970097B9F564
:101A10002D913C911197CD010296820F931F209139
:101A20006002309161022817390739F6309751F575
:101A30001092630210926202B0936102A09360025E
:101A4000BCCFD383C28340815181840F951FC817B7
:101A5000D90761F44E5F5F4F88819981480F591F04
:101A6000518340838A819B81938382832115310531
:101A700009F0B0CFF0936302E09362029ECFFD01C4
:101A8000DC01C0CF13821282D7CFB0E0A0E0EBE43C
:101A9000FDE00C94890A8C01009751F4CB010E945F
:101AA000200C8C01C801CDB7DEB7E0E10C94A50A8B
:101AB000FC01E60FF71F9C0122503109E217F307E2
:101AC00008F49DC0D901CD91DC911197C617D707B5
:101AD00098F0C530D10530F3CE01049786179707EB
:101AE00008F3C61BD70B2297C193D1936D937C93B8
:101AF000CF010E94BC0CD6CF5B01AC1ABD0A4C01D1
:101B00008C0E9D1EA0916202B0916302512C412C5B
:101B1000F12CE12C109731F58091600290916102D7
:101B20008815990509F05CC04616570608F058C09C
:101B30008091000190910101009741F48DB79EB70B
:101B40004091040150910501841B950BE817F9079A
:101B500008F055C0F0936102E0936002F9017183CF
:101B60006083A0CF8D919C91119712966C901297E3
:101B700013967C901397A815B90559F56C0142E0AE
:101B8000C40ED11CCA14DB0420F1AC014A195B0954
:101B9000DA011296159780F0628273825183408336
:101BA000D9016D937C93E114F10471F0D701139680
:101BB000FC93EE93129776CF22968C0F9D1FF9011E
:101BC00091838083F301EFCFF0936302E09362028D
:101BD00069CF4816590608F42C017D01D3019ACF2C
:101BE000CB010E94200C7C01009749F0AE01B801A6
:101BF0000E94020EC8010E94BC0C870153CF10E066
:101C000000E050CFFB01DC0102C001900D92415079
:101C10005040D8F70895FB01DC018D9101908019A7
:101C20000110D9F3990B0895FB01DC0101900D928D
:101C30000020E1F7089510E0CBE7D0E004C0FE01FA
:101C40000E941A0C2196CC37D107C9F7F894FFCF20
:101C500000006402800000000000C8012801550156
:101C60001502860164017801312E350073657450C8
:101C70006F7300676574506F73006E616E00696EFC
:101C800066006F7666000D0A0074657374617300F8
:081C90006765745665720000DF
:00000001FF
